:100000000C9463000C948B000C948B000C94830C68
:100010000C94830C0C94830C0C948B000C948B002C
:100020000C948B000C948B000C948B000C948B0024
:100030000C948B000C948B000C948B000C948B0014
:100040000C94E10B0C948B000C94510C0C942B0C25
:100050000C948B000C948B000C948B000C948B00F4
:100060000C94FC0C0C948B00000000002400270072
:100070002A0000000008000201000003040700003D
:1000800000000000000000000000230026002900FE
:1000900000000000250028002B00040404040404D0
:1000A0000404020202020202030303030303010227
:1000B00004081020408001020408102001020408F6
:1000C00010201B0E491911241FBECFEFD8E0DEBF50
:1000D000CDBF25E0A4E9B2E001C01D92AE3DB2075C
:1000E000E1F712E0A0E0B1E0E0E9FAE302C0059038
:1000F0000D92A439B107D9F710E0C2E6D0E004C0F0
:100100002197FE010E94CD19C136D107C9F70E947F
:10011000CD0F0C943B1D0C94000091E0909349048A
:1001200080936B0410924A0410926C040895089511
:10013000089590E0FC01EE58FF4F2491FC01E25538
:10014000FF4F3491FC01E656FF4FE491EE23C9F0D6
:10015000222339F0233001F1A8F4213019F12230A3
:1001600029F1F0E0EE0FFF1FE057FF4FA591B4918A
:100170008FB7F894EC91611126C030953E233C93E3
:100180008FBF08952730A9F02830C9F0243049F7EF
:10019000809180008F7D03C0809180008F77809355
:1001A0008000DFCF84B58F7784BDDBCF84B58F7DB2
:1001B000FBCF8091B0008F778093B000D2CF809139
:1001C000B0008F7DF9CF3E2BDACFCF93DF9390E055
:1001D000FC01E255FF4F249186569F4FFC0184910C
:1001E0008823D1F090E0880F991FFC01E859FF4F58
:1001F000A591B491FC01E057FF4FC591D4916111D5
:100200000EC09FB7F8948C91E22FE0958E238C93CB
:100210002881E223E8839FBFDF91CF9108958FB7B4
:10022000F894EC91E22BEC938FBFF6CF0F931F93D2
:10023000CF93DF93EC01162F042F1B821A8288EED6
:1002400093E0A0E0B0E08C839D83AE83BF838AE01F
:1002500091E0998388831F8A1E8A198E188E1B8EBF
:100260001A8E1D8E1C8E6E8D6E7F6D7F6E8F6695C5
:10027000617081E06827842F0E94990061E0802FDF
:100280000E94E500802F90E0FC01E255FF4FE491D1
:10029000E88BFC01E656FF4FE491F0E0EE0FFF1F04
:1002A000E057FF4F859194919A8B898B60E0812F65
:1002B0000E94E5008E8D81FD04C061E0812F0E94C7
:1002C00099001C87812F90E0FC01E255FF4FE491DB
:1002D000ED87FC01E656FF4FE491F0E0EE0FFF1FC3
:1002E000EA57FF4F859194919F878E87DF91CF9139
:1002F0001F910F9108953FB7F8948091F303909167
:10030000F403A091F503B091F60326B5A89B05C0B0
:100310002F3F19F00196A11DB11D3FBFBA2FA92F84
:10032000982F8827BC01CD01620F711D811D911D81
:1003300042E0660F771F881F991F4A95D1F70895ED
:100340008F929F92AF92BF92CF92DF92EF92FF92E5
:100350004B015C010E947B016B017C010E947B01CF
:100360006C197D098E099F09683E734081059105CE
:10037000A8F321E0821A9108A108B10888EEC80EFE
:1003800083E0D81EE11CF11C81149104A104B10486
:1003900029F7FF90EF90DF90CF90BF90AF909F90A4
:1003A0008F900895AF92BF92CF92DF92EF92FF921B
:1003B0000F931F93CF93DF936C017B018B01040F8D
:1003C000151FEB015E01AE18BF08C017D10759F029
:1003D0006991D601ED91FC910190F081E02DC6016B
:1003E0000995892B79F7C501DF91CF911F910F9165
:1003F000FF90EF90DF90CF90BF90AF900895FC01F9
:10040000538D448D252F30E0842F90E0821B930B79
:10041000541710F0CF96089501970895FC01918D1F
:10042000828D981761F0A28DAE0FBF2FB11D5D9622
:100430008C91928D9F5F9F73928F90E008958FEFC4
:100440009FEF0895FC01918D828D981731F0828D78
:10045000E80FF11D858D90E008958FEF9FEF0895CF
:10046000FC01918D228D892F90E0805C9F4F821B33
:1004700091098F73992708958DE694E00E943002C8
:1004800021E0892B09F420E0822F089580E090E09C
:10049000892B29F00E943C0281110C9400000895E0
:1004A000FC01A48DA80FB92FB11DA35ABF4F2C91E9
:1004B000848D90E001968F739927848FA689B789E0
:1004C0002C93A089B1898C91837080648C93938DD7
:1004D000848D981306C00288F389E02D80818F7D7A
:1004E00080830895EF92FF920F931F93CF93DF9332
:1004F000EC0181E0888F9B8D8C8D98131AC0E88960
:10050000F989808185FF15C09FB7F894EE89FF892E
:100510006083E889F98980818370806480839FBFCC
:1005200081E090E0DF91CF911F910F91FF90EF90CC
:100530000895F62E0B8D10E00F5F1F4F0F731127DC
:10054000E02E8C8D8E110CC00FB607FCFACFE88917
:10055000F989808185FFF5CFCE010E945002F1CF4D
:10056000EB8DEC0FFD2FF11DE35AFF4FF0829FB78B
:10057000F8940B8FEA89FB8980818062CFCF682F46
:100580008DE694E00C947202CF93DF93EC01888D9A
:100590008823B9F0AA89BB89E889F9898C9185FDFE
:1005A00003C0808186FD0DC00FB607FCF7CF8C918C
:1005B00085FFF2CF808185FFEDCFCE010E945002F2
:1005C000E9CFDF91CF9108952091DA033091DB03D9
:1005D0002817390771F49091D9038091D80398179F
:1005E00041F0E091D903F0E0E852FD4F808190E0C6
:1005F00008958FEF9FEF08950895EF92FF920F9364
:100600001F93CF93DF93DC015C96ED90FC905D9798
:10061000E114F10479F481E090E013969C938E93B9
:10062000129790E080E0DF91CF911F910F91FF90A2
:10063000EF9008955196ED91FC91529750968C91C0
:100640005097982F90950FB75E962C915E97122F2A
:10065000127021FD6095F8942081112319F1282B47
:100660002083E7012197F1F728E0462F50E0308101
:1006700060FF1AC0382B3083E7012197F1F7BA01E8
:1006800075956795215089F7112381F08081892321
:1006900080830FBF5C968D919C910197F1F781E06B
:1006A00090E0C1CF2923DCCF3923E5CF9081892B7E
:1006B000EFCF2091DA033091DB032817390739F4A3
:1006C0008091D8039091D903891B90E0089590E020
:1006D00080E008952091DA033091DB032817390771
:1006E00099F49091D9038091D803981769F0E0911B
:1006F000D903F0E0E852FD4F80819091D9039F5FCC
:100700009093D90390E008958FEF9FEF0895CF93D2
:10071000DF93FC012781222359F1EC0161E0808500
:100720000E94E50061E089850E94E5008F818430A8
:1007300011F08830B1F461E08A850E94E50061E043
:100740008B850E94E5008FA58F3F91F061E00E94AC
:10075000E5006EA581E068278FA5DF91CF910C940D
:100760009900833011F0863071F761E08A85E9CF16
:10077000DF91CF910895CF93DF93FC01278122234E
:10078000A9F0EC010190F081E02D0284F385E02DC9
:1007900060E009958FA58F3F49F061E00E94E50078
:1007A0006EA58FA5DF91CF910C949900DF91CF9129
:1007B0000895DC01ED91FC91228533854770552722
:1007C0006627772741505109610971094730510562
:1007D0006105710560F4FA01E051FC4F0C94CD19EC
:1007E000FA03FC03FE03000402040404060461E0AF
:1007F000F901099465E0FCCF64E0FACF66E0F8CF38
:1008000062E0F6CF6AE0F4CF68E0F2CF69E0F0CFC3
:10081000CF93DF93EC01CB01BA0126E030E040E05A
:1008200050E00E94A219623071058105910589F19D
:100830006CF46115710581059105D1F06130710588
:1008400081059105F9F0DF91CF910895643071052C
:100850008105910561F124F16530710581059105EE
:1008600091F7E881F9810284F385E02D66E006C006
:10087000E881F9810284F385E02D64E0CE01DF9107
:10088000CF910994E881F9810284F385E02D65E038
:10089000F5CFE881F9810284F385E02D61E0EECFA8
:1008A000E881F9810284F385E02D63E0E7CFE881F8
:1008B000F9810284F385E02D62E0E0CFDC01ED9167
:1008C000FC910284F385E02D437055276627772736
:1008D000423051056105710571F0433051056105E4
:1008E000710559F0413051056105710511F065E060
:1008F000099466E0FDCF6AE0FBCF69E0F9CFCF93C2
:10090000DF93EC01CB01BA0123E030E040E050E09E
:100910000E94A219613071058105910599F062303C
:10092000710581059105A9F0672B682B692BC1F42E
:10093000E881F9810284F385E02D64E0CE01DF9146
:10094000CF910994E881F9810284F385E02D61E07B
:10095000F5CFE881F9810284F385E02D62E0EECFE6
:10096000DF91CF910895DC01ED91FC910284F38534
:10097000E02D4370552766277727423051056105E2
:10098000710571F0433051056105710559F0413031
:1009900051056105710511F062E0099463E0FDCF36
:1009A00061E0FBCF60E0F9CFCF93DF93EC01E8810A
:1009B000F9810284F385E02D8A8160E0811162E093
:1009C000CE010995E881F9810284F385E02D8A81C1
:1009D00061E0811163E0CE0109958CA59DA582306F
:1009E000910538F0880F991F880F991F0597019777
:1009F000F1F7E881F9810284F385E02D8A8160E0D6
:100A0000811162E0CE01DF91CF910994CF93DF9302
:100A1000EC0120E030E0A901688D798D8A8D9B8DF5
:100A20000E949F1B18162CF4E8A9F9A9DF91CF9119
:100A30000994EAA9FBA9FACFCF92DF92EF92FF9235
:100A40000F931F93CF93DF93DC011796CC91C430A3
:100A500039F0C83059F1C33019F0C63049F1C2E05D
:100A60008C01085F1F4FF12CE12CC62ED12CD1E058
:100A7000F8016481C6010E2C02C0959587950A94F1
:100A8000E2F780FD6D270F5F1F4F80810E94990064
:100A9000BFEFEB1AFB0AEC1658F3DF91CF911F91D1
:100AA0000F91FF90EF90DF90CF900895C4E0D8CFE2
:100AB000C3E0D6CFDC011796EC911797E93008F028
:100AC00038C0F0E0EA59FA4F0C94CD196F0575055E
:100AD0007B058105870599058D0599059305ED91A0
:100AE000FC910684F785E02D0994ED91FC91008836
:100AF000F189E02DF9CFED91FC910288F389E02D89
:100B0000F3CFED91FC910488F589E02DEDCFED91C7
:100B1000FC910688F789E02DE7CFED91FC91008CE0
:100B2000F18DE02DE1CFED91FC91028CF38DE02D64
:100B3000DBCF08954F925F926F927F928F929F9238
:100B4000AF92BF92CF92DF92EF92FF920F931F93DB
:100B5000CF93DF93EC01CC88DD88EE88FF8888890D
:100B60009989AA89BB89C81AD90AEA0AFB0A688D39
:100B7000798D8A8D9B8D9B01AC010E94A41B4B013A
:100B80005C0168A179A18AA19BA19B01AC010E9493
:100B9000D4199B01AC01C501B4010E94451A0E9401
:100BA000B71AC114D104E104F10409F0B6C06230EF
:100BB0007105810591050CF0D0C01B821C821D823D
:100BC0001E82188E198E1A8E1B8E1CAA1DAA1EAA92
:100BD0001FAAC12CD12C7601C701B601DF91CF919C
:100BE0001F910F91FF90EF90DF90CF90BF90AF904B
:100BF0009F908F907F906F905F904F900895101608
:100C0000110612061306B4F46C157D058E059F05BA
:100C10001CF42A812111A1C09B01AC0188279927CE
:100C2000DC01821B930BA40BB50B8CAB9DABAEAB65
:100C3000BFAB93C0011511052105310509F48DC025
:100C40006C157D058E059F050CF087C08A81882371
:100C500009F483C030952095109501951F4F2F4FB3
:100C60003F4F0CAB1DAB2EAB3FAB77C00115110551
:100C70002105310509F471C08824992454018C1888
:100C80009D08AE08BF08681579058A059B050CF01C
:100C900064C08A81811161C0DDCFCCACDDACEEAC2B
:100CA000FFACA7019601C701B6010E94D4192B0120
:100CB0003C01C501B4010E94EF1A20E030E040E899
:100CC00050E40E94A41B20E030E040E85FE30E9473
:100CD000D4199B01AC01C301B2010E94451A9B01CA
:100CE000AC01C701B6010E94D3193B016C01FE01A2
:100CF000E05CFF4FE080F180028113819701A80141
:100D00000E949F1B181614F473018601C701D801B5
:100D10008CAF9DAFAEAFBFAF3AC00CA91DA92EA935
:100D20003FA91C141D041E041F040CF468CF1016E8
:100D30001106120613060CF099CF0027112798010F
:100D40000C191D092E093F096017710782079307C7
:100D50000CF062CF2A8121115FCF8CA89DA8AEA88C
:100D6000BFA881149104A104B10409F096CF88AD05
:100D700099ADAAADBBAD8CAF9DAFAEAFBFAF81E0BB
:100D80001C141D041E041F040CF080E08A833FEF36
:100D9000831A930AA30AB30A8CAA9DAAAEAABFAA71
:100DA0008CAC9DACAEACBFACC501B4010E94BE1A08
:100DB0006B017C01CB82DC82ED82FE82A501940175
:100DC00060E074E284E799E40E94451A688F798FA5
:100DD0008A8F9B8F2A812111FFCE9058688F798F3F
:100DE0008A8F9B8FF9CE0895DC01ED91FC910190E3
:100DF000F081E02D09942091B502260F3327331F8F
:100E000021323105ECF420914304FC0190E080E0B4
:100E1000243069F082E00895A091B5022191AC01DF
:100E20004B565D4FA40FB52FB11D2C93019686171D
:100E300098F38091B502680F6093B50280E0089541
:100E400081E008951092430481E08093420410925F
:100E50001D0461E082E10E94990061E083E10E944B
:100E60009900E9EBF0E080818E7F808380818D7F27
:100E7000808388E48093B80085E48093BC00089563
:100E80001092FC031092FB0310924A0410926C041F
:100E90000E94220787E990E09093FA038093F90378
:100EA00088E990E09093F8038093F7030895CF9337
:100EB000DF9391E0909394028823B9F0C091B80039
:100EC000D091BA008091BC008A7B8093BC0060E026
:100ED00082E10E94990060E083E10E9499000E94F3
:100EE0002207D093BA00C093B800DF91CF91089544
:100EF0008F929F92AF92BF92CF92DF92EF92FF922A
:100F00000F931F93CF93DF93D0916C04D13208F0ED
:100F1000D7C0182FC0916B040E947B016B017C012C
:100F20008091430481116BC082E08093430410934D
:100F300042048FEF8093410410924004D0933F0409
:100F4000ABE4B4E0EFE1F4E080E0D81391C010929C
:100F50001E0480911E04CC0FC82BC0931E048091E8
:100F60001D04813009F088C010921D040E947B018D
:100F70006B017C0180911E048093BB00809145042D
:100F800090914604A0914704B0914804892B8A2B84
:100F90008B2BA1F00E947B01009145041091460427
:100FA00020914704309148046C197D098E099F09EE
:100FB000061717072807390708F442C08091BC00BC
:100FC00083FDD8CF85EC8093BC000E947B016B0130
:100FD0007C0180914304823009F450C08091410427
:100FE0008F3F09F46FC080914104803209F46CC0D6
:100FF00080914104803309F469C084E026C0809167
:10100000450490914604A0914704B0914804892B6F
:101010008A2B8B2B09F484CF0E947B01809045049E
:1010200090904604A0904704B09048046C197D0944
:101030008E099F0986169706A806B90608F070CF94
:10104000809144040E94570785E010924A04109250
:101050006C0410924904DF91CF911F910F91FF9082
:10106000EF90DF90CF90BF90AF909F908F900895BA
:101070009D9191938F5F69CF85EEA5CF80914504B7
:1010800090914604A0914704B0914804892B8A2B83
:101090008B2B09F49ECF0E947B0100914504109197
:1010A000460420914704309148046C197D098E094B
:1010B0009F09061717072807390708F08ACFC0CFFE
:1010C00081E0C3CF80E0C1CF82E0BFCF83E0BDCF5E
:1010D0001F93CF93DF93EA01122FDC0111968D91BC
:1010E0009C91DC01ED91FC910280F381E02D09954A
:1010F000C817D90729F4812F0E94780791E0811140
:1011000090E0892FDF91CF911F9108958F929F9248
:10111000AF92BF92CF92DF92EF92FF920F931F9305
:10112000CF93DF93D82FC62F142F613208F09CC0C5
:101130000E947B016B017C018091430481116FC08F
:1011400081E080934304109342049FEF9093410405
:10115000109240049C0F90933F0480931E04809152
:101160001E04DD0FD82BD0931E0480911D04813006
:1011700009F07CC010921D040E947B016B017C0170
:1011800080911E048093BB00809145049091460499
:10119000A0914704B0914804892B8A2B8B2BA1F096
:1011A0000E947B0100914504109146042091470460
:1011B000309148046C197D098E099F09061717079D
:1011C0002807390708F44CC08091BC0083FDD8CFB4
:1011D00085EC8093BC000E947B016B017C018091B7
:1011E0004304813009F444C0809140048C1710F40A
:1011F000C0914004EFE1F4E0ADEFB3E080E08C1388
:1012000059C08C2FDF91CF911F910F91FF90EF90DC
:10121000DF90CF90BF90AF909F908F900895809176
:10122000450490914604A0914704B0914804892B4D
:101230008A2B8B2B09F480CF0E947B018090450480
:1012400090904604A0904704B09048046C197D0922
:101250008E099F0986169706A806B90608F06CCF76
:10126000809144040E945707C0E0CBCF85EEB1CFF8
:101270008091450490914604A0914704B0914804A0
:10128000892B8A2B8B2B09F4AACF0E947B0100911A
:1012900045041091460420914704309148046C198C
:1012A0007D098E099F09061717072807390708F0D7
:1012B00096CFD6CF91919D938F5FA1CFE091FC0304
:1012C0008091FB03E81730F4F0E0E350FC4F80819D
:1012D00090E008958FEF9FEF08959091FC03809127
:1012E000FB032FEF3FEF981748F4E92FF0E0E350AE
:1012F000FC4F208130E09F5F9093FC03C90108956B
:101300008091FB039091FC03891B990B0895CF9268
:10131000DF92EF92FF920F931F93CF93DF937C01A5
:10132000CB018A0120914904222389F0EB016B0152
:10133000C40ED51ECC15DD0569F06991D701ED917C
:10134000FC910190F081E02DC7010995F3CF642F46
:101350000E94FB06C801DF91CF911F910F91FF9072
:10136000EF90DF90CF900895CF93DF931F92CDB78A
:10137000DEB76983209149042223F9F020916C049F
:10138000203258F021E030E0FC013383228390E0EA
:1013900080E00F90DF91CF91089580914A04E82F6B
:1013A000F0E0E55BFB4F998190838F5F80934A0467
:1013B00080936C0481E090E0ECCF61E0CE01019677
:1013C0000E94FB06F7CF81E00C947807CF93DF9360
:1013D000C82FD62F88E60E948D0080911605909127
:1013E00017056FE070E0D11102C06EE070E00E945E
:1013F000F4068091160590911705DC01ED91FC91A2
:101400000190F081E02D6C2F099580911605909147
:101410001705DF91CF910C94E309CF93DF93EC0193
:101420008B81882371F088810E948D0089819A8147
:101430000E94E30991E0811190E0892FDF91CF9123
:1014400008950E94400781E08B83CE010E940D0A1F
:10145000982F8111E8CFF1CF90E080E008950F93AD
:101460001F93CF93DF9300D000D01F92CDB7DEB78C
:10147000660F660F6A5F69831A825B832C833D83E4
:10148000FC0101811281F80184819581059760F04A
:1014900080810E948D0021E045E050E0BE016F5F39
:1014A0007F4FC8010E9468080F900F900F900F9017
:1014B0000F90DF91CF911F910F9108959A0150E005
:1014C00040E0CB960C942F0A1F93CF93DF93EC014F
:1014D0008C8583FF64C0613009F05FC0885F8C87B2
:1014E0008C858F738C8740EF5FE06C818D859E8546
:1014F0000E945E0A40EF5FE06F818D859E850E94AD
:101500005E0A8C8590E023E0959587952A95E1F712
:1015100010E08830910524F4885E9E4FFC01108114
:101520006E818D859E85CB9630E020E040E050E1D5
:1015300010FD02C050E040E00E942F0A68858D85B2
:101540009E85CB9630E020E040E050E111FD02C0E6
:1015500050E040E00E942F0A6D818D859E85CB96DC
:1015600030E020E040E050E112FD02C050E040E0F9
:101570000E942F0A69858D859E85CB9630E020E0FC
:1015800040E050E113FD02C050E040E00E942F0A0D
:101590008C85DF91CF911F9108958850A0CF613045
:1015A00011F4805F9CCF80519ACF61E080915C05FF
:1015B00090915D050C94640A62E080915C059091C5
:1015C0005D050C94640A0F931F93CF93DF9300D0B3
:1015D000CDB7DEB789836A8300919A0510919B0588
:1015E000F80184819581029760F080810E948D00CE
:1015F00021E042E050E0BE016F5F7F4FC8010E94D2
:1016000068080F900F90DF91CF911F910F9108956F
:1016100041E088E60E9486081092FC038093FB0359
:101620000895CF93C82F88E60E948D0080911605FB
:10163000909117056FE070E0C11102C06EE070E09C
:101640000E94F40680911605909117050E94E30907
:1016500061E070E080911605909117050E94080BDB
:101660008091160590911705DC01ED91FC910284A3
:10167000F385E02D0995CF910895FC01019000209C
:10168000E9F73197AF01481B590BBC018DE694E097
:101690000C94D20184E691E00C943D0B8F929F92C2
:1016A000AF92BF920F931F93CF93DF93CDB7DEB767
:1016B000A1970FB6F894DEBF0FBECDBF19A242307E
:1016C00008F44AE08E010F5D1F4F842E912CB12C3F
:1016D000A12CA50194010E948019E62FB901CA012D
:1016E000EA30F4F4E05DD801EE938D01232B242B36
:1016F000252B79F790E080E0109719F0CD010E943A
:101700003D0BA1960FB6F894DEBF0FBECDBFDF91A3
:10171000CF911F910F91BF90AF909F908F900895A0
:10172000E95CE1CF462F682F70E090E080E00C94F8
:101730004E0BCF93DF930E943D0BEC010E944A0BAE
:101740008C0F9D1FDF91CF9108950C943D0B0C944D
:10175000B21C85ED8093BC008091450490914604B5
:10176000A0914704B09148040796A11DB11D23E044
:10177000B695A795979587952A95D1F72091BC00A6
:1017800024FD03C0109243040895409145045091F4
:1017900046046091470470914804452B462B472B23
:1017A00069F30097A105B10541F02AE22A95F1F706
:1017B00000C00197A109B109E1CF809144040C94C4
:1017C00057071F920F920FB60F9211242F933F933A
:1017D0008F939F93AF93BF938091EF039091F0030A
:1017E000A091F103B091F2033091EE0323E0230FB7
:1017F0002D3758F50196A11DB11D2093EE0380935E
:10180000EF039093F003A093F103B093F203809160
:10181000F3039091F403A091F503B091F6030196C0
:10182000A11DB11D8093F3039093F403A093F503DE
:10183000B093F603BF91AF919F918F913F912F91FC
:101840000F900FBE0F901F90189526E8230F029659
:10185000A11DB11DD2CF1F920F920FB60F9211246E
:101860002F933F934F935F936F937F938F939F93A8
:10187000AF93BF93EF93FF938DE694E00E945002E5
:10188000FF91EF91BF91AF919F918F917F916F9158
:101890005F914F913F912F910F900FBE0F901F902E
:1018A00018951F920F920FB60F9211242F938F93BA
:1018B0009F93EF93FF93E0917D04F0917E048081EC
:1018C000E0918304F091840482FD1BC0908180919B
:1018D00086048F5F8F7320918704821741F0E09117
:1018E0008604F0E0E359FB4F958F80938604FF91C7
:1018F000EF919F918F912F910F900FBE0F901F909E
:1019000018958081F4CF1F920F920FB60F92112479
:101910002F933F934F935F936F937F938F939F93F7
:10192000AF93BF93CF93DF93EF93FF93E091DA03ED
:10193000F091DB03309749F0A685B7858585968DB4
:1019400091FF16C09C918923B1F4FF91EF91DF9133
:10195000CF91BF91AF919F918F917F916F915F9147
:101960004F913F912F910F900FBE0F901F901895A0
:101970009C91892351F7A389B4899C91858980958D
:1019800089238C93868997890197F1F7608D718DF2
:10199000C685D785558598E080E0DB011197F1F782
:1019A000282F30E035952795822F4881452309F06F
:1019B0008068915091F7968D91FD80959091D80314
:1019C0009F5F2091D903921799F0A091D803B0E0BE
:1019D000A852BD4F8C939093D803828D938D01971D
:1019E000F1F7A389B4898C919589892B8C93ADCF1C
:1019F000868D8160868FF1CF1F920F920FB60F9266
:101A000011242F933F934F935F936F937F938F9303
:101A10009F93AF93BF93EF93FF938091B900887F1B
:101A2000803609F44AC0F0F5883209F4A7C018F5E9
:101A3000803109F49BC0B8F4882309F4F9C08830D8
:101A400009F494C0FF91EF91BF91AF919F918F9155
:101A50007F916F915F914F913F912F910F900FBEAA
:101A60000F901F901895883109F488C0803251F783
:101A70008093410414C0803409F49DC040F4803345
:101A8000B9F38833F9F68093410485ECB0C0803512
:101A900009F485C0883509F496C0883499F60E9407
:101AA000A90BD0CF883909F48CC038F5883729F0D4
:101AB00050F4883611F0803729F683E08093430490
:101AC0001092D70257C0883809F47BC0803919F0CA
:101AD000803809F0B7CF8091D702803208F071C00A
:101AE000E091D70281E08E0F8093D7028091BB00F6
:101AF000F0E0E954FD4F80833DC0803B39F0E0F4D5
:101B0000803A09F479C0883A09F09CCF84E0809348
:101B100043041092B6021092B502E091F903F091DD
:101B2000FA0309958091B50281110FC081E080937D
:101B3000B5021092950209C0803C09F4A6CF883CFA
:101B400009F4A3CF883B09F07DCFE091B60281E094
:101B50008E0F8093B602F0E0EB56FD4F80818093AC
:101B6000BB009091B6028091B50229C080911E04FD
:101B70008093BB0085EC8093BC0064CF90914004BF
:101B800080913F04981758F5E091400481E08E0F52
:101B900080934004F0E0E15EFB4F8081E9CFE0916B
:101BA000400481E08E0F809340048091BB00F0E000
:101BB000E15EFB4F80839091400480913F04981731
:101BC000C8F285E8D8CFE091400481E08E0F809381
:101BD00040048091BB00F0E0E15EFB4F8083809188
:101BE000420481115CCF81E080931D0484EA8093DC
:101BF000BC001092430426CF85EC8093BC00109269
:101C000043048091D702803230F4E091D702F0E0B3
:101C1000E954FD4F10826091D70270E0E091F70324
:101C2000F091F80387EB92E009951092D7020ACF62
:101C30001092410434CFCF92DF92EF92FF92109234
:101C4000700410926F0488EE93E0A0E0B0E08093FF
:101C5000710490937204A0937304B093740424E20B
:101C600031E030936E0420936D0425EC30E0309326
:101C70007A042093790424EC30E030937C042093A0
:101C80007B0420EC30E030937E0420937D0421EC33
:101C900030E03093800420937F0422EC30E03093D6
:101CA00082042093810426EC30E030938404209356
:101CB0008304109286041092870410928804109274
:101CC000890410920D0510920C0580930E059093D7
:101CD0000F05A0931005B093110586E391E0909352
:101CE0000B0580930A0543E064E08BEB95E00E94CE
:101CF000160145E066E08CE995E00E941601E1E6F8
:101D0000F5E01482138215821282118210823696B7
:101D100085E0E937F807A9F7109285051092880544
:101D200010928405109283051092950510929B05E0
:101D300010929A0580E48093990580E680935E0571
:101D400081E08093980588EC90E0909394058093CF
:101D500093058EE595E0909397058093960582E034
:101D600080938D0587E08093900584E080938E05B5
:101D700083E080938F0585E08093910586E08093D2
:101D8000920589E895E090935D0580935C0588E471
:101D900091E0909319058093180510921F051092F9
:101DA00028051092290510922A0510922B051092F1
:101DB0002C0510922D0510922E0510922F051092D1
:101DC00030051092310510923205109233051092B1
:101DD0003405109235051092360510923705C12C46
:101DE000D12C80E8E82E8FE3F82EC0923C05D092EB
:101DF0003D05E0923E05F0923F0510921B051092C2
:101E00001C0510921D0510921E0581E090E0909334
:101E10004505809344058FEF809347051092400558
:101E20001092410510924205109243051092200530
:101E300010922105109222051092230585ED9AE05B
:101E400090934905809348058CED9AE090934B055B
:101E500080934A0510924C0510924D0510924E0544
:101E600010924F0510925405109255051092560588
:101E700010925705C0925805D0925905E0925A0524
:101E8000F0925B0510921A05109224051092250518
:101E9000109226051092270586E896E6A9E6B9E491
:101EA0008093500590935105A0935205B09353052C
:101EB000C0923805D0923905E0923A05F0923B0580
:101EC00088E195E00E949A05A7019601609134058A
:101ED0007091350580913605909137050E94401A22
:101EE00081110BC08AE095E0909317058093160549
:101EF000FF90EF90DF90CF900895C0923405D0927C
:101F00003505E0923605F092370580E094E2A4E7CB
:101F1000B9E48093580590935905A0935A05B0935E
:101F20005B0580914C0590914D05A0914E05B091B7
:101F30004F05181619061A061B06A4F660913005FF
:101F40007091310580913205909133059B01AC0170
:101F50000E94A41B6B017C016091380570913905CA
:101F600080913A0590913B059B01AC010E94D419E8
:101F70009B01AC01C701B6010E94451A0E94B71A25
:101F800060934C0570934D0580934E0590934F05DB
:101F900088E195E00E949A05A5CFCF93DF93CDB756
:101FA000DEB764970FB6F894DEBF0FBECDBF78944E
:101FB00084B5826084BD84B5816084BD85B582604E
:101FC00085BD85B5816085BD80916E0081608093FF
:101FD0006E00109281008091810082608093810068
:101FE0008091810081608093810080918000816078
:101FF000809380008091B10084608093B1008091D3
:10200000B00081608093B00080917A0084608093FA
:102010007A0080917A00826080937A0080917A00C1
:10202000816080937A0080917A00806880937A0042
:102030001092C100E0917D04F0917E0482E08083E3
:10204000E0917904F0917A041082E0917B04F091A0
:102050007C048FEC808310928504E0918104F091E0
:10206000820486E08083E0917F04F0918004808187
:1020700080618083E0917F04F0918004808188609A
:102080008083E0917F04F091800480818068808368
:10209000E0917F04F091800480818F7D80830E9495
:1020A000400787E691E00E94990B61E082E00E9480
:1020B000E50061E087E00E94E500D0905E05D092E7
:1020C000990586E090E00E94161C8C01DC01DC92F0
:1020D0008AE095E012969C938E93119713961C922A
:1020E000139780E290E015969C938E93149710932B
:1020F0009B0500939A050E94400781E0F8018383C5
:10210000C8010E940D0A882311F40C94441960E060
:1021100080E00E94E30A80E496E09093600580935B
:102120005F051982C0909A05D0909B05D601149640
:102130008D919C911597892BD1F18C910E948D00E6
:1021400020E041E050E0BE016F5F7F4FC6010E947A
:102150006808882361F1BB24B394F60184819581DA
:10216000892B09F4B12C4B2D6B2DD6018C910E943B
:1021700086081092FC038093FB03082F10E0B01632
:102180001106A9F490E080E08017910770F4F60141
:1021900081819281DC01ED91FC910284F385E02D37
:1021A0000995898381E090E0EFCF012BA1F219819D
:1021B000612F6F76606180E00E94E30A63E08EEF3A
:1021C0000E94E30A612F80E00E94E30A65E070E06C
:1021D00080E090E00E94A001612F616A80E00E948F
:1021E000E30A10E030E020E050E040E0612F89E9B0
:1021F00095E00E942F0A1F5F1031A1F780E892E05E
:102200000E94990B20E030E048E452E460913005F0
:102210007091310580913205909133050E94401AEA
:102220008823E9F1409034055090350560903605DB
:102230007090370553014201B7FAB094B7F8B094E3
:1022400020E030E048E452ECC301B2010E94401AA1
:1022500087FD0CC020E030E048E452E4C301B20145
:102260000E94401A87FF12C75301420120E030E06C
:10227000A901C501B4010E94401A81110DC7109235
:102280001B0510921C0510921D0510921E058092D0
:10229000300590923105A0923205B092330560E08E
:1022A00082E00E94990060E087E00E94990085E743
:1022B00091E00E94990BD12CC12C11E0812F0E943A
:1022C0008D008AE095E00E94E309811106C781E84C
:1022D00091E00E94A50B103120F480EA91E00E9469
:1022E000A50B60E170E0812F0E94920B82EA91E0E1
:1022F0000E94990BBFEFCB1ADB0A1F5F1F37F1F665
:1023000082EC91E0CD2811F088ED91E00E94990BCC
:102310001AE000E0C02E00E0D02E8DE694E00E948E
:102320003002892B09F4A4C200E08DE694E00E94FB
:102330003002892BD1F38DE694E00E940E02E1E099
:10234000F0E0EC0FFD1FE00FF11D80830F5F883779
:1023500061F7CE0101960E94990B998190538A8171
:102360008053919F800D11248093ED039B819053A6
:102370008C818053919F800D11248093EC039D816B
:1023800090538E818053919F800D11248093EB0395
:102390008F8180538093EA03988590538985805379
:1023A000919F800D11248093E9039A8590538B852A
:1023B0008053919F800D11248093E8039C85905356
:1023C0008D858053919F800D11248093E70388E6CB
:1023D0000E948D0062E070E08091160590911705D3
:1023E0000E94F40680911605909117050E94E3095A
:1023F00061E070E080911605909117050E94080B2E
:102400008091160590911705DC01ED91FC910284F5
:10241000F385E02D0995082F88E60E948D0062E083
:1024200070E080911605909117050E94F406809146
:10243000160590911705602F6F7BDC01ED91FC91E3
:102440000190F081E02D0995809116059091170576
:102450000E94E3090091ED0388E60E948D0066E08A
:1024600070E080911605909117050E94F406A091E6
:102470001605B0911705802F612F0E94C119829512
:10248000807F682F690FED91FC9111970190F08189
:10249000E02DCD01099580911605909117050E94B8
:1024A000E3090091EC0388E60E948D0065E070E08E
:1024B00080911605909117050E94F406A0911605CB
:1024C000B0911705802F612F0E94C1198295807FDE
:1024D000682F690FED91FC9111970190F081E02D2B
:1024E000CD01099580911605909117050E94E30989
:1024F0000091EB0388E60E948D0064E070E080911B
:102500001605909117050E94F406A0911605B0914A
:102510001705802F612F0E94C1198295807F682F37
:10252000690FED91FC9111970190F081E02DCD01A3
:10253000099580911605909117050E94E309009175
:10254000EA0388E60E948D0063E070E08091160542
:10255000909117050E94F406A0911605B0911705F9
:10256000802F612F0E94C1198295807F682F690F8B
:10257000ED91FC9111970190F081E02DCD0109952D
:1025800080911605909117050E94E3090091E903D7
:1025900088E60E948D0062E070E0809116059091BF
:1025A00017050E94F40680911605909117050E9468
:1025B000E30961E070E080911605909117050E9493
:1025C000080B8091160590911705DC01ED91FC91A7
:1025D0000284F385E02D099586FF94C521E00C3037
:1025E00008F420E00C3008F00C50011101C00CE0A0
:1025F000802F612F0E94C1198295807F980F30E053
:10260000B5E0220F331FBA95E1F7022F0064092BC2
:1026100088E60E948D0062E070E08091160590913E
:1026200017050E94F4068091160590911705DC01AC
:10263000ED91FC910190F081E02D602F0995809142
:102640001605909117050E94E3090091E80388E6BA
:102650000E948D0061E070E0809116059091170551
:102660000E94F406A0911605B0911705802F612FE6
:102670000E94C1198295807F682F690FED91FC91AE
:1026800011970190F081E02DCD01099580911605FB
:10269000909117050E94E3090091E70388E60E94E4
:1026A0008D0070E060E080911605909117050E9402
:1026B000F406A0911605B0911705802F612F0E9496
:1026C000C1198295807F682F690FED91FC91119758
:1026D0000190F081E02DCD01099580911605909132
:1026E00017050E94E30981E00E94110B61E08F77DA
:1026F0000E94E6099090E703A090E803A394B090AD
:10270000E9030091EA0388E60E948D0067E070E02B
:1027100080911605909117050E94F406892D612F6E
:102720000E94C1198295807F980F692F70E0809177
:102730001605909117050E94F4068A2D612F0E94BC
:10274000C1198295807F980F692F70E080911605DE
:10275000909117050E94F406A0911605B0911705F7
:102760008B2D612F0E94C1198295807F682F690F80
:10277000ED91FC9111970190F081E02DCD0109952B
:10278000A0911605B0911705802F612F0E94C119E5
:10279000682F6295607F690F6064ED91FC911197DD
:1027A0000190F081E02DCD01099580911605909161
:1027B00017050E94E3090091E8030E5FA090E9036A
:1027C000B090EB0388E60E948D006BE070E0809192
:1027D0001605909117050E94F406802F612F0E9424
:1027E000C1198295807F980F692F70E0809116053E
:1027F000909117050E94F406A0911605B091170557
:102800008A2D612F0E94C1198295807F682F690FE0
:10281000ED91FC9111970190F081E02DCD0109958A
:10282000A0911605B09117058B2D612F0E94C1193B
:102830008295807F682F690FED91FC91119701902F
:10284000F081E02DCD010995809116059091170535
:102850000E94E30980E00E94110B60E085600E9405
:10286000E60980E00E94110B60E086600E94E609A4
:102870008EED91E00E94A50B8091E603882309F478
:102880004BC480EE91E00E94A50B88E60E948D006B
:1028900066E070E080911605909117050E94F4069D
:1028A00080911605909117050E94E30961E070E0A0
:1028B00080911605909117050E94080B80911605CE
:1028C00090911705DC01ED91FC910284F385E02DD8
:1028D0000995982F92959F708F706AE070E0919F94
:1028E000800D11240E94920B80E20E94BF0288E6B4
:1028F0000E948D0065E070E08091160590911705AB
:102900000E94F40680911605909117050E94E30934
:1029100061E070E080911605909117050E94080B08
:102920008091160590911705DC01ED91FC910284D0
:10293000F385E02D0995982F991F9927991F90935A
:10294000E603982F929597708F706AE070E0919FE0
:10295000800D11240E94920B8BE192E00E94A50B46
:1029600088E60E948D0064E070E0809116059091E9
:1029700017050E94F40680911605909117050E9494
:10298000E30961E070E080911605909117050E94BF
:10299000080B8091160590911705DC01ED91FC91D3
:1029A0000284F385E02D0995982F92959F708F7082
:1029B0006AE070E0919F800D11240E94920B8BE1E0
:1029C00092E00E94A50B88E60E948D0063E070E013
:1029D00080911605909117050E94F40680911605C6
:1029E000909117050E94E30961E070E0809116055F
:1029F000909117050E94080B80911605909117057C
:102A0000DC01ED91FC910284F385E02D0995982F6E
:102A100092959F708F706AE070E0919F800D1124F5
:102A20000E94920B8BE192E00E94A50B88E60E9427
:102A30008D0062E070E080911605909117050E946C
:102A4000F40680911605909117050E94E30961E054
:102A500070E080911605909117050E94080B8091F7
:102A6000160590911705DC01ED91FC910284F38528
:102A7000E02D099521E0AC014074552786FF20E048
:102A80002093E503282F22952F70382F3F70452B78
:102A900009F445C385FB992790F99093E4032170CD
:102AA000832F219F800D11246AE070E00E94920B19
:102AB0008BE192E00E94A50B88E60E948D0061E008
:102AC00070E080911605909117050E94F4068091A0
:102AD0001605909117050E94E30961E070E080916E
:102AE0001605909117050E94080B8091160590918C
:102AF0001705DC01ED91FC910284F385E02D099529
:102B0000982F92959F708F706AE070E0919F800D72
:102B100011240E94920B8BE192E00E94A50B88E6A3
:102B20000E948D0070E060E080911605909117057D
:102B30000E94F40680911605909117050E94E30902
:102B400061E070E080911605909117050E94080BD6
:102B50008091160590911705DC01ED91FC9102849E
:102B6000F385E02D0995982F92959F708F706AE0FC
:102B700070E0919F800D11240E94920B8091E503DB
:102B8000882309F4D1C28091E403882309F4C9C2DF
:102B900082EE91E00E94A50B82EF91E00E94A50BCE
:102BA00088E60E948D0061E170E0809116059091A9
:102BB00017050E94F40680911605909117050E9452
:102BC000E30962E070E080911605909117050E947C
:102BD000080B8091160590911705DC01ED91FC9191
:102BE0000084F185E02D0995812CACE39A2EACE1AF
:102BF000AA2EA6ECBA2E892B09F499C2809116054B
:102C000090911705DC01ED91FC910284F385E02D94
:102C10000995082F8091160590911705DC01ED911B
:102C2000FC910284F385E02D0995E12CBC01607CC8
:102C300077276E29702B072E000C880B990B0E94AA
:102C4000EF1A20E030E040E85BE30E94A41B4B0158
:102C50005C01AC019B010E94111C882309F467C22E
:102C600085EF91E00E943D0B81E00E94110B87FFF0
:102C7000ECC281E092E00E94A50B81E00E94110B62
:102C8000082F61E08E7F0E94E60900FF04C089E002
:102C900092E00E94A50B81E00E94110B082F61E0D9
:102CA0008D7F0E94E60901FF04C08EE092E00E9441
:102CB000A50B0E944A0B83E192E00E94A50B88E6D7
:102CC0000E948D0067E070E08091160590911705D5
:102CD0000E94F40680911605909117050E94E30961
:102CE00064E070E080911605909117050E94080B32
:102CF0008091160590911705DC01ED91FC910284FD
:102D0000F385E02D0995282F22952770982F9F7025
:102D1000219F900D11249093E003881F8827881F1E
:102D20009091DF03892B8093DF03809116059091AA
:102D30001705DC01ED91FC910284F385E02D0995E6
:102D4000382F32953770282F2F70319F200D112486
:102D50002093E103E6E095958795EA95E1F7827087
:102D60009091DF03892B8093DF038091160590916A
:102D70001705DC01ED91FC910284F385E02D0995A6
:102D80009C01F5E035952795FA95E1F7322F3470DF
:102D90002091DF03232B2093DF0321E0AC0140745B
:102DA000552786FF20E02093DD03382F32953F70B2
:102DB000282F2F70452B09F44BC285FB882780F9FB
:102DC0008093DC033170319F200D11242093E203A6
:102DD0008091160590911705DC01ED91FC9102841C
:102DE000F385E02D09959C0174E0359527957A953A
:102DF000E1F7322F38702091DF03232B2093DF037C
:102E000021E0AC014074552786FF20E02093DE03CB
:102E1000282F2F70452B09F41DC22093E3036AE08D
:102E200070E08091E3030E94920B8091DE0388237F
:102E300009F416C28DE192E00E94A50B80E20E9487
:102E4000BF026AE070E08091E2030E94920B80E290
:102E50000E94BF026AE070E08091E1030E94920B41
:102E600080E20E94BF026AE070E08091E0030E946D
:102E7000920B80E20E94BF028091DD03882349F01B
:102E80008091DC03882309F4EEC188E292E00E947D
:102E9000A50B80E00E94110B80FF04C080E392E04C
:102EA0000E94A50B0E944A0B88E392E00E94A50BAA
:102EB00088E60E948D006BE070E08091160590918D
:102EC00017050E94F40680911605909117050E943F
:102ED000E30963E070E080911605909117050E9468
:102EE000080B8091160590911705DC01ED91FC917E
:102EF0000284F385E02D0995382F32953770282FFD
:102F00002F70319F200D11242093E10353E09595FC
:102F100087955A95E1F780719091DF03892B809313
:102F2000DF038091160590911705DC01ED91FC916E
:102F30000284F385E02D09959C01359527953595FB
:102F40002795322F30722091DF03232B2093DF034C
:102F500021E0AC014074552786FF20E02093DD037B
:102F6000382F32953F70282F2F70452B09F47EC1E2
:102F700085FB882780F98093DC033170319F200D19
:102F800011242093E2038091160590911705DC012E
:102F9000ED91FC910284F385E02D09959C01359516
:102FA0002795322F30742091DF03232B2093DF03EA
:102FB00021E0AC014074552786FF20E02093DE031A
:102FC000282F2F70452B09F453C12093E3036AE0A7
:102FD00070E08091E3030E94920B8091DE038823CE
:102FE00009F44CC18DE192E00E94A50B8BE192E0C7
:102FF0000E94A50B6AE070E08091E2030E94920BB0
:103000008BE192E00E94A50B6AE070E08091E10301
:103010000E94920B8BE192E00E94A50B8091DD0350
:10302000882349F08091DC03882309F42AC182E4D3
:1030300092E00E94A50B80E00E94110B81FF04C06A
:1030400080E392E00E94A50B0E944A0B88E492E084
:103050000E94A50B62E070E08091DF030E94920B5A
:103060000E944A0B0E944A0B68EE73E080E090E0F9
:103070000E94A001C114D10409F44FC90E943C026E
:10308000882309F44AC90E94000047C9812C912C69
:1030900088E4A82E82E4B82EA501940160E074E2D1
:1030A00084E799E40E94451A9F770E94BE1A6093B4
:1030B0001B0570931C0580931D0590931E0511E060
:1030C00020E030E0A901C501B4010E949F1B181641
:1030D0000CF010E010931A05DAC8843009F00DC91D
:1030E00086EA91E00E94A50B103120F480EA91E07D
:1030F0000E94A50B60E170E0812F0E94920B0E945C
:103100004A0BFBC8802F612F0E94C119082F02951E
:10311000007F090F0F7B7CCA80EA91E0B4CB23705B
:10312000BFCC87EE91E036CD8CEE91E033CD24011B
:103130003501E89477F82FEF3FEF4FE75FE7C301E2
:10314000B2010E94111C81110DC02FEF3FEF4FE71C
:103150005FE7C301B2010E94401A18161CF489EF00
:1031600091E080CD2FEF3FEF4FE75FE4C501B40161
:103170000E949F1B18161CF48DEF91E073CD2FEF6A
:103180003FEF4FE75FECC501B4010E94401A87FD95
:10319000F3CF20E030E0A901C501B4010E94401A3C
:1031A00087FF07C08DE20E94BF02B7FAB094B7F85C
:1031B000B0942AE037ED43EA5BE3C501B4010E9415
:1031C000D4192B013C010E94BE1A4B015C010E94E4
:1031D000ED1A9B01AC01C301B2010E94D3192B016E
:1031E0003C014AE0C501B4010E944E0B8EE20E94F0
:1031F000BF0220E030E040E251E4C301B2010E948E
:10320000A41B2B013C010E94BE1A4B01B12CA12C26
:103210004AE0C501B4010E944E0BC501B4010E94F1
:10322000ED1A9B01AC01C301B2010E94D31920E049
:1032300030E040E251E40E94A41B0E94BE1A90E0DC
:1032400080E04AE00E944E0B0FCD85E092E013CD66
:103250003370B9CD82958370819F200D1124DDCD0F
:1032600082E292E0E9CD8CE292E011CE337086CE1C
:1032700082958370819F200D1124A7CE82E292E077
:10328000B3CE85E492E0D5CE85E592E00E94990B1D
:10329000FFCF8AE091E090939D0580939C058091FB
:1032A000DA039091DB038C59954071F4E091AF05FE
:1032B000F091B00590818091B1058095892380833C
:1032C0001092DB031092DA038AE091E09093BC0540
:1032D0008093BB058091DA039091DB038B5B954073
:1032E00071F4E091CE05F091CF0590818091D005E9
:1032F0008095892380831092DB031092DA0308956E
:10330000A1E21A2EAA1BBB1BFD010DC0AA1FBB1FE9
:10331000EE1FFF1FA217B307E407F50720F0A21B5B
:10332000B30BE40BF50B661F771F881F991F1A94C8
:1033300069F760957095809590959B01AC01BD01F2
:10334000CF010895052E97FB1EF400940E94B91931
:1033500057FD07D00E94801907FC03D04EF40C944F
:10336000B91950954095309521953F4F4F4F5F4F7C
:10337000089590958095709561957F4F8F4F9F4FE1
:103380000895991B79E004C0991F961708F0961BC1
:10339000881F7A95C9F780950895EE0FFF1F059055
:1033A000F491E02D09945058BB27AA270E94EB19ED
:1033B0000C94651B0E94571B38F00E945E1B20F086
:1033C00039F49F3F19F426F40C94541B0EF4E09545
:1033D000E7FB0C944E1BE92F0E94761B58F3BA179B
:1033E000620773078407950720F079F4A6F50C941B
:1033F000981B0EF4E0950B2EBA2FA02D0B01B901EE
:1034000090010C01CA01A0011124FF27591B99F05A
:10341000593F50F4503E68F11A16F040A22F232F66
:10342000342F4427585FF3CF469537952795A795B6
:10343000F0405395C9F77EF41F16BA0B620B730B5D
:10344000840BBAF09150A1F0FF0FBB1F661F771FCE
:10345000881FC2F70EC0BA0F621F731F841F48F483
:10346000879577956795B795F7959E3F08F0B0CF0C
:103470009395880F08F09927EE0F979587950895F3
:103480000E942A1B08F481E008950E94591A0C94A6
:10349000651B0E945E1B58F00E94571B40F029F4E8
:1034A0005F3F29F00C944E1B51110C94991B0C9406
:1034B000541B0E94761B68F39923B1F3552391F3B3
:1034C000951B550BBB27AA2762177307840738F093
:1034D0009F5F5F4F220F331F441FAA1FA9F335D0F0
:1034E0000E2E3AF0E0E832D091505040E695001CA4
:1034F000CAF72BD0FE2F29D0660F771F881FBB1F5E
:10350000261737074807AB07B0E809F0BB0B802D3B
:10351000BF01FF2793585F4F3AF09E3F510578F067
:103520000C944E1B0C94991B5F3FE4F3983ED4F32C
:10353000869577956795B795F7959F5FC9F7880F3B
:10354000911D9695879597F90895E1E0660F771F8D
:10355000881FBB1F621773078407BA0720F0621B1E
:10356000730B840BBA0BEE1F88F7E09508950E9449
:10357000BE1A6894B1110C94991B08950E947E1B89
:1035800088F09F5798F0B92F9927B751B0F0E1F024
:10359000660F771F881F991F1AF0BA95C9F714C0D4
:1035A000B13091F00E94981BB1E008950C94981BE3
:1035B000672F782F8827B85F39F0B93FCCF386950D
:1035C00077956795B395D9F73EF49095809570956A
:1035D00061957F4F8F4F9F4F0895E89409C097FBE7
:1035E0003EF490958095709561957F4F8F4F9F4FDA
:1035F0009923A9F0F92F96E9BB279395F69587951E
:1036000077956795B795F111F8CFFAF4BB0F11F4E0
:1036100060FF1BC06F5F7F4F8F4F9F4F16C0882387
:1036200011F096E911C0772321F09EE8872F762FBD
:1036300005C0662371F096E8862F70E060E02AF0FE
:103640009A95660F771F881FDAF7880F96958795EA
:1036500097F90895990F0008550FAA0BE0E8FEEFBF
:1036600016161706E807F907C0F012161306E40746
:10367000F50798F0621B730B840B950B39F40A263F
:1036800061F0232B242B252B21F408950A2609F41D
:10369000A140A6958FEF811D811D089597F99F6721
:1036A00080E870E060E008959FEF80EC08950024CA
:1036B0000A941616170618060906089500240A9497
:1036C00012161306140605060895092E0394000C1D
:1036D00011F4882352F0BB0F40F4BF2B11F460FFAC
:1036E00004C06F5F7F4F8F4F9F4F089557FD9058D5
:1036F000440F551F59F05F3F71F04795880F97FBB6
:10370000991F61F09F3F79F087950895121613066F
:103710001406551FF2CF4695F1DF08C0161617069E
:103720001806991FF1CF86957105610508940895D3
:10373000E894BB2766277727CB0197F908950E9465
:103740002A1B08F48FEF08950E94B71B0C94651B89
:103750000E94571B38F00E945E1B20F0952311F049
:103760000C944E1B0C94541B11240C94991B0E9416
:10377000761B70F3959FC1F3950F50E0551F629F24
:10378000F001729FBB27F00DB11D639FAA27F00DBA
:10379000B11DAA1F649F6627B00DA11D661F829FE1
:1037A0002227B00DA11D621F739FB00DA11D621FC6
:1037B000839FA00D611D221F749F3327A00D611DE3
:1037C000231F849F600D211D822F762F6A2F1124C5
:1037D0009F5750409AF0F1F088234AF0EE0FFF1FF8
:1037E000BB1F661F771F881F91505040A9F79E3F4F
:1037F000510580F00C944E1B0C94991B5F3FE4F331
:10380000983ED4F3869577956795B795F795E795A4
:103810009F5FC1F7FE2B880F911D9695879597F9AD
:1038200008950E942A1B880B990B08950F931F93EC
:10383000CF93DF938230910510F482E090E0E09125
:10384000DC05F091DD0530E020E0B0E0A0E030974D
:1038500099F42115310509F44AC0281B390B24308D
:103860003105D8F58A819B816115710589F1FB01CC
:1038700093838283FE0111C04081518102811381B3
:1038800048175907E0F04817590799F4109761F065
:1038900012960C93129713961C933296CF01DF91D8
:1038A000CF911F910F9108950093DC051093DD05D2
:1038B000F4CF2115310551F04217530738F0A90113
:1038C000DB019A01BD01DF01F801C1CFEF01F9CFA2
:1038D0009093DD058093DC05CDCFFE01E20FF31F51
:1038E000819391932250310939832883D7CF209136
:1038F000DA053091DB05232B41F420910201309150
:1039000003013093DB052093DA052091000130910B
:1039100001012115310541F42DB73EB74091040155
:1039200050910501241B350BE091DA05F091DB0580
:10393000E217F307A0F42E1B3F0B2817390778F086
:10394000AC014E5F5F4F2417350748F04E0F5F1FE5
:103950005093DB054093DA05819391939FCFF0E07C
:10396000E0E09CCFCF93DF930097E9F0FC01329722
:1039700013821282A091DC05B091DD05ED0130E0EB
:1039800020E01097A1F420813181820F931F2091B4
:10399000DA053091DB052817390709F061C0F0938B
:1039A000DB05E093DA05DF91CF910895EA01CE17A8
:1039B000DF07E8F54A815B819E0141155105B1F7AA
:1039C000E901FB83EA8349915991C40FD51FEC1794
:1039D000FD0761F4808191810296840F951FE901B2
:1039E00099838883828193819B838A83F0E0E0E0DE
:1039F00012968D919C9113970097B9F52D913C915A
:103A00001197CD010296820F931F2091DA05309114
:103A1000DB052817390739F6309751F51092DD0587
:103A20001092DC05B093DB05A093DA05BCCFD383FD
:103A3000C28340815181840F951FC817D90761F453
:103A40004E5F5F4F88819981480F591F5183408392
:103A50008A819B81938382832115310509F0B0CF40
:103A6000F093DD05E093DC059ECFFD01DC01C0CFC6
:103A700013821282D7CF10E0C2E6D0E004C0FE016C
:103A80000E94CD192196C336D107C9F7F894FFCF0C
:103A90000000DE05800000000000FD02D2012C0ABB
:103AA000FC0259036A03E40201030206040C08093C
:103AB000000000007202D201FF01C40230020E02B7
:103AC000220200000000B40987092C0AFC028009C8
:103AD0006D095E0900000000BB038703F306A70B16
:103AE0009A051C055A050605D404B3047F045E0438
:103AF0000804D9030D0A0053746570706572207450
:103B000065737421005363616E6E696E672E2E2E8D
:103B1000004932432064657669636520666F756E7F
:103B2000642061742061646472657373203078006E
:103B3000300020202100556E6B6E6F776E2065720D
:103B4000726F7220617420616464726573732030D7
:103B500078004E6F2049324320646576696365734F
:103B600020666F756E640A00646F6E650A0032002D
:103B7000310020504D200020414D2000203234687B
:103B80002000543D006E616E00696E66006F7666BF
:103B900000204F2D00204F2B0020413121002041DB
:103BA000322100416C61726D20313A200020446F57
:103BB0005700204461746500706D2000616D200025
:103BC000656E61626C656400416C61726D20323AB1
:103BD0002000706D00616D00416C61726D20626942
:103BE00074733A2000436F756C64206E6F742066A6
:103BF000696E64204D6F746F7220536869656C64E0
:103C00002E20436865636B20776972696E672E00AA
:103C10004D6F746F7220536869656C6420666F75B0
:043C20006E642E00A0
:00000001FF
